{
  "_format": "hh-sol-artifact-1",
  "contractName": "Dwitter",
  "sourceName": "contracts/dwitter.sol",
  "abi": [
    {
      "inputs": [
        {
          "internalType": "uint256",
          "name": "",
          "type": "uint256"
        }
      ],
      "name": "dweets",
      "outputs": [
        {
          "internalType": "address",
          "name": "author",
          "type": "address"
        },
        {
          "internalType": "string",
          "name": "content",
          "type": "string"
        },
        {
          "internalType": "uint256",
          "name": "timestamp",
          "type": "uint256"
        },
        {
          "internalType": "uint256",
          "name": "likes",
          "type": "uint256"
        }
      ],
      "stateMutability": "view",
      "type": "function"
    },
    {
      "inputs": [],
      "name": "getDweets",
      "outputs": [
        {
          "components": [
            {
              "internalType": "address",
              "name": "author",
              "type": "address"
            },
            {
              "internalType": "string",
              "name": "content",
              "type": "string"
            },
            {
              "internalType": "uint256",
              "name": "timestamp",
              "type": "uint256"
            },
            {
              "internalType": "uint256",
              "name": "likes",
              "type": "uint256"
            }
          ],
          "internalType": "struct Dwitter.Dweet[]",
          "name": "",
          "type": "tuple[]"
        }
      ],
      "stateMutability": "view",
      "type": "function"
    },
    {
      "inputs": [
        {
          "internalType": "address",
          "name": "_wallet",
          "type": "address"
        }
      ],
      "name": "getUser",
      "outputs": [
        {
          "components": [
            {
              "internalType": "address",
              "name": "wallet",
              "type": "address"
            },
            {
              "internalType": "string",
              "name": "name",
              "type": "string"
            },
            {
              "internalType": "string",
              "name": "username",
              "type": "string"
            },
            {
              "internalType": "string",
              "name": "bio",
              "type": "string"
            },
            {
              "internalType": "string",
              "name": "avatar",
              "type": "string"
            }
          ],
          "internalType": "struct Dwitter.User",
          "name": "",
          "type": "tuple"
        }
      ],
      "stateMutability": "view",
      "type": "function"
    },
    {
      "inputs": [
        {
          "internalType": "string",
          "name": "_content",
          "type": "string"
        }
      ],
      "name": "postDweet",
      "outputs": [],
      "stateMutability": "nonpayable",
      "type": "function"
    },
    {
      "inputs": [
        {
          "internalType": "string",
          "name": "_username",
          "type": "string"
        },
        {
          "internalType": "string",
          "name": "_name",
          "type": "string"
        },
        {
          "internalType": "string",
          "name": "_bio",
          "type": "string"
        },
        {
          "internalType": "string",
          "name": "_avatar",
          "type": "string"
        }
      ],
      "name": "signup",
      "outputs": [],
      "stateMutability": "nonpayable",
      "type": "function"
    },
    {
      "inputs": [
        {
          "internalType": "address",
          "name": "",
          "type": "address"
        }
      ],
      "name": "usernames",
      "outputs": [
        {
          "internalType": "string",
          "name": "",
          "type": "string"
        }
      ],
      "stateMutability": "view",
      "type": "function"
    },
    {
      "inputs": [
        {
          "internalType": "string",
          "name": "",
          "type": "string"
        }
      ],
      "name": "users",
      "outputs": [
        {
          "internalType": "address",
          "name": "wallet",
          "type": "address"
        },
        {
          "internalType": "string",
          "name": "name",
          "type": "string"
        },
        {
          "internalType": "string",
          "name": "username",
          "type": "string"
        },
        {
          "internalType": "string",
          "name": "bio",
          "type": "string"
        },
        {
          "internalType": "string",
          "name": "avatar",
          "type": "string"
        }
      ],
      "stateMutability": "view",
      "type": "function"
    }
  ],
  "bytecode": "0x608060405234801561001057600080fd5b50611b22806100206000396000f3fe608060405234801561001057600080fd5b506004361061007d5760003560e01c80636f77926b1161005b5780636f77926b14610105578063d7798e5b14610135578063ee91877c14610153578063fcf58fa5146101835761007d565b806337dc190c14610082578063675164a4146100b5578063689e1c03146100d1575b600080fd5b61009c60048036038101906100979190611002565b61019f565b6040516100ac9493929190611118565b60405180910390f35b6100cf60048036038101906100ca9190611299565b610287565b005b6100eb60048036038101906100e69190611299565b610484565b6040516100fc9594939291906112e2565b60405180910390f35b61011f600480360381019061011a919061137d565b610710565b60405161012c919061148e565b60405180910390f35b61013d610a24565b60405161014a91906115e4565b60405180910390f35b61016d6004803603810190610168919061137d565b610b7f565b60405161017a9190611606565b60405180910390f35b61019d60048036038101906101989190611628565b610c1f565b005b600081815481106101af57600080fd5b90600052602060002090600402016000915090508060000160009054906101000a900473ffffffffffffffffffffffffffffffffffffffff16908060010180546101f89061172e565b80601f01602080910402602001604051908101604052809291908181526020018280546102249061172e565b80156102715780601f1061024657610100808354040283529160200191610271565b820191906000526020600020905b81548152906001019060200180831161025457829003601f168201915b5050505050908060020154908060030154905084565b6000600160003373ffffffffffffffffffffffffffffffffffffffff1673ffffffffffffffffffffffffffffffffffffffff16815260200190815260200160002080546102d39061172e565b905011610315576040517f08c379a000000000000000000000000000000000000000000000000000000000815260040161030c906117d2565b60405180910390fd5b6000815111610359576040517f08c379a000000000000000000000000000000000000000000000000000000000815260040161035090611864565b60405180910390fd5b608c8151111561039e576040517f08c379a0000000000000000000000000000000000000000000000000000000008152600401610395906118d0565b60405180910390fd5b600060405180608001604052803373ffffffffffffffffffffffffffffffffffffffff16815260200183815260200142815260200160008152509050600081908060018154018082558091505060019003906000526020600020906004020160009091909190915060008201518160000160006101000a81548173ffffffffffffffffffffffffffffffffffffffff021916908373ffffffffffffffffffffffffffffffffffffffff1602179055506020820151816001019080519060200190610469929190610ed0565b50604082015181600201556060820151816003015550505050565b6002818051602081018201805184825260208301602085012081835280955050505050506000915090508060000160009054906101000a900473ffffffffffffffffffffffffffffffffffffffff16908060010180546104e39061172e565b80601f016020809104026020016040519081016040528092919081815260200182805461050f9061172e565b801561055c5780601f106105315761010080835404028352916020019161055c565b820191906000526020600020905b81548152906001019060200180831161053f57829003601f168201915b5050505050908060020180546105719061172e565b80601f016020809104026020016040519081016040528092919081815260200182805461059d9061172e565b80156105ea5780601f106105bf576101008083540402835291602001916105ea565b820191906000526020600020905b8154815290600101906020018083116105cd57829003601f168201915b5050505050908060030180546105ff9061172e565b80601f016020809104026020016040519081016040528092919081815260200182805461062b9061172e565b80156106785780601f1061064d57610100808354040283529160200191610678565b820191906000526020600020905b81548152906001019060200180831161065b57829003601f168201915b50505050509080600401805461068d9061172e565b80601f01602080910402602001604051908101604052809291908181526020018280546106b99061172e565b80156107065780601f106106db57610100808354040283529160200191610706565b820191906000526020600020905b8154815290600101906020018083116106e957829003601f168201915b5050505050905085565b610718610f56565b6002600160008473ffffffffffffffffffffffffffffffffffffffff1673ffffffffffffffffffffffffffffffffffffffff168152602001908152602001600020604051610766919061198f565b90815260200160405180910390206040518060a00160405290816000820160009054906101000a900473ffffffffffffffffffffffffffffffffffffffff1673ffffffffffffffffffffffffffffffffffffffff1673ffffffffffffffffffffffffffffffffffffffff1681526020016001820180546107e59061172e565b80601f01602080910402602001604051908101604052809291908181526020018280546108119061172e565b801561085e5780601f106108335761010080835404028352916020019161085e565b820191906000526020600020905b81548152906001019060200180831161084157829003601f168201915b505050505081526020016002820180546108779061172e565b80601f01602080910402602001604051908101604052809291908181526020018280546108a39061172e565b80156108f05780601f106108c5576101008083540402835291602001916108f0565b820191906000526020600020905b8154815290600101906020018083116108d357829003601f168201915b505050505081526020016003820180546109099061172e565b80601f01602080910402602001604051908101604052809291908181526020018280546109359061172e565b80156109825780601f1061095757610100808354040283529160200191610982565b820191906000526020600020905b81548152906001019060200180831161096557829003601f168201915b5050505050815260200160048201805461099b9061172e565b80601f01602080910402602001604051908101604052809291908181526020018280546109c79061172e565b8015610a145780601f106109e957610100808354040283529160200191610a14565b820191906000526020600020905b8154815290600101906020018083116109f757829003601f168201915b5050505050815250509050919050565b60606000805480602002602001604051908101604052809291908181526020016000905b82821015610b7657838290600052602060002090600402016040518060800160405290816000820160009054906101000a900473ffffffffffffffffffffffffffffffffffffffff1673ffffffffffffffffffffffffffffffffffffffff1673ffffffffffffffffffffffffffffffffffffffff168152602001600182018054610ad19061172e565b80601f0160208091040260200160405190810160405280929190818152602001828054610afd9061172e565b8015610b4a5780601f10610b1f57610100808354040283529160200191610b4a565b820191906000526020600020905b815481529060010190602001808311610b2d57829003601f168201915b505050505081526020016002820154815260200160038201548152505081526020019060010190610a48565b50505050905090565b60016020528060005260406000206000915090508054610b9e9061172e565b80601f0160208091040260200160405190810160405280929190818152602001828054610bca9061172e565b8015610c175780601f10610bec57610100808354040283529160200191610c17565b820191906000526020600020905b815481529060010190602001808311610bfa57829003601f168201915b505050505081565b6000600160003373ffffffffffffffffffffffffffffffffffffffff1673ffffffffffffffffffffffffffffffffffffffff1681526020019081526020016000208054610c6b9061172e565b905014610cad576040517f08c379a0000000000000000000000000000000000000000000000000000000008152600401610ca4906119f2565b60405180910390fd5b600073ffffffffffffffffffffffffffffffffffffffff16600285604051610cd59190611a43565b908152602001604051809103902060000160009054906101000a900473ffffffffffffffffffffffffffffffffffffffff1673ffffffffffffffffffffffffffffffffffffffff1614610d5d576040517f08c379a0000000000000000000000000000000000000000000000000000000008152600401610d5490611acc565b60405180910390fd5b6040518060a001604052803373ffffffffffffffffffffffffffffffffffffffff16815260200184815260200185815260200183815260200182815250600285604051610daa9190611a43565b908152602001604051809103902060008201518160000160006101000a81548173ffffffffffffffffffffffffffffffffffffffff021916908373ffffffffffffffffffffffffffffffffffffffff1602179055506020820151816001019080519060200190610e1b929190610ed0565b506040820151816002019080519060200190610e38929190610ed0565b506060820151816003019080519060200190610e55929190610ed0565b506080820151816004019080519060200190610e72929190610ed0565b5090505083600160003373ffffffffffffffffffffffffffffffffffffffff1673ffffffffffffffffffffffffffffffffffffffff1681526020019081526020016000209080519060200190610ec9929190610ed0565b5050505050565b828054610edc9061172e565b90600052602060002090601f016020900481019282610efe5760008555610f45565b82601f10610f1757805160ff1916838001178555610f45565b82800160010185558215610f45579182015b82811115610f44578251825591602001919060010190610f29565b5b509050610f529190610f9b565b5090565b6040518060a00160405280600073ffffffffffffffffffffffffffffffffffffffff168152602001606081526020016060815260200160608152602001606081525090565b5b80821115610fb4576000816000905550600101610f9c565b5090565b6000604051905090565b600080fd5b600080fd5b6000819050919050565b610fdf81610fcc565b8114610fea57600080fd5b50565b600081359050610ffc81610fd6565b92915050565b60006020828403121561101857611017610fc2565b5b600061102684828501610fed565b91505092915050565b600073ffffffffffffffffffffffffffffffffffffffff82169050919050565b600061105a8261102f565b9050919050565b61106a8161104f565b82525050565b600081519050919050565b600082825260208201905092915050565b60005b838110156110aa57808201518184015260208101905061108f565b838111156110b9576000848401525b50505050565b6000601f19601f8301169050919050565b60006110db82611070565b6110e5818561107b565b93506110f581856020860161108c565b6110fe816110bf565b840191505092915050565b61111281610fcc565b82525050565b600060808201905061112d6000830187611061565b818103602083015261113f81866110d0565b905061114e6040830185611109565b61115b6060830184611109565b95945050505050565b600080fd5b600080fd5b7f4e487b7100000000000000000000000000000000000000000000000000000000600052604160045260246000fd5b6111a6826110bf565b810181811067ffffffffffffffff821117156111c5576111c461116e565b5b80604052505050565b60006111d8610fb8565b90506111e4828261119d565b919050565b600067ffffffffffffffff8211156112045761120361116e565b5b61120d826110bf565b9050602081019050919050565b82818337600083830152505050565b600061123c611237846111e9565b6111ce565b90508281526020810184848401111561125857611257611169565b5b61126384828561121a565b509392505050565b600082601f8301126112805761127f611164565b5b8135611290848260208601611229565b91505092915050565b6000602082840312156112af576112ae610fc2565b5b600082013567ffffffffffffffff8111156112cd576112cc610fc7565b5b6112d98482850161126b565b91505092915050565b600060a0820190506112f76000830188611061565b818103602083015261130981876110d0565b9050818103604083015261131d81866110d0565b9050818103606083015261133181856110d0565b9050818103608083015261134581846110d0565b90509695505050505050565b61135a8161104f565b811461136557600080fd5b50565b60008135905061137781611351565b92915050565b60006020828403121561139357611392610fc2565b5b60006113a184828501611368565b91505092915050565b6113b38161104f565b82525050565b600082825260208201905092915050565b60006113d582611070565b6113df81856113b9565b93506113ef81856020860161108c565b6113f8816110bf565b840191505092915050565b600060a08301600083015161141b60008601826113aa565b506020830151848203602086015261143382826113ca565b9150506040830151848203604086015261144d82826113ca565b9150506060830151848203606086015261146782826113ca565b9150506080830151848203608086015261148182826113ca565b9150508091505092915050565b600060208201905081810360008301526114a88184611403565b905092915050565b600081519050919050565b600082825260208201905092915050565b6000819050602082019050919050565b6114e581610fcc565b82525050565b600060808301600083015161150360008601826113aa565b506020830151848203602086015261151b82826113ca565b915050604083015161153060408601826114dc565b50606083015161154360608601826114dc565b508091505092915050565b600061155a83836114eb565b905092915050565b6000602082019050919050565b600061157a826114b0565b61158481856114bb565b935083602082028501611596856114cc565b8060005b858110156115d257848403895281516115b3858261154e565b94506115be83611562565b925060208a0199505060018101905061159a565b50829750879550505050505092915050565b600060208201905081810360008301526115fe818461156f565b905092915050565b6000602082019050818103600083015261162081846110d0565b905092915050565b6000806000806080858703121561164257611641610fc2565b5b600085013567ffffffffffffffff8111156116605761165f610fc7565b5b61166c8782880161126b565b945050602085013567ffffffffffffffff81111561168d5761168c610fc7565b5b6116998782880161126b565b935050604085013567ffffffffffffffff8111156116ba576116b9610fc7565b5b6116c68782880161126b565b925050606085013567ffffffffffffffff8111156116e7576116e6610fc7565b5b6116f38782880161126b565b91505092959194509250565b7f4e487b7100000000000000000000000000000000000000000000000000000000600052602260045260246000fd5b6000600282049050600182168061174657607f821691505b6020821081141561175a576117596116ff565b5b50919050565b7f596f75206d757374207369676e20757020746f20706f7374206120647765657460008201527f2e00000000000000000000000000000000000000000000000000000000000000602082015250565b60006117bc60218361107b565b91506117c782611760565b604082019050919050565b600060208201905081810360008301526117eb816117af565b9050919050565b7f596f75206d75737420777269746520736f6d657468696e6720746f20706f737460008201527f20612064776565742e0000000000000000000000000000000000000000000000602082015250565b600061184e60298361107b565b9150611859826117f2565b604082019050919050565b6000602082019050818103600083015261187d81611841565b9050919050565b7f596f757220647765657420697320746f6f206c6f6e672e000000000000000000600082015250565b60006118ba60178361107b565b91506118c582611884565b602082019050919050565b600060208201905081810360008301526118e9816118ad565b9050919050565b600081905092915050565b60008190508160005260206000209050919050565b6000815461191d8161172e565b61192781866118f0565b94506001821660008114611942576001811461195357611986565b60ff19831686528186019350611986565b61195c856118fb565b60005b8381101561197e5781548189015260018201915060208101905061195f565b838801955050505b50505092915050565b600061199b8284611910565b915081905092915050565b7f5573657220616c72656164792065786973747300000000000000000000000000600082015250565b60006119dc60138361107b565b91506119e7826119a6565b602082019050919050565b60006020820190508181036000830152611a0b816119cf565b9050919050565b6000611a1d82611070565b611a2781856118f0565b9350611a3781856020860161108c565b80840191505092915050565b6000611a4f8284611a12565b915081905092915050565b7f557365726e616d652069732074616b656e2c20706c656173652074727920616e60008201527f6f74686572206f6e652e00000000000000000000000000000000000000000000602082015250565b6000611ab6602a8361107b565b9150611ac182611a5a565b604082019050919050565b60006020820190508181036000830152611ae581611aa9565b905091905056fea26469706673582212204a3768555a25e9551c034eedad60595c3d2dd3debc35abd787268f641546704d64736f6c63430008090033",
  "linkReferences": {},
  "deployedLinkReferences": {}
}